{
  "_format": "hh-sol-artifact-1",
  "contractName": "JudicialEvidenceLedger",
  "sourceName": "contracts/JudicialEvidenceLedger.sol",
  "abi": [
    {
      "anonymous": false,
      "inputs": [
        {
          "indexed": true,
          "internalType": "string",
          "name": "evidenceId",
          "type": "string"
        },
        {
          "indexed": false,
          "internalType": "string",
          "name": "fromRole",
          "type": "string"
        },
        {
          "indexed": false,
          "internalType": "string",
          "name": "toRole",
          "type": "string"
        },
        {
          "indexed": false,
          "internalType": "uint256",
          "name": "timestamp",
          "type": "uint256"
        }
      ],
      "name": "CustodyTransferred",
      "type": "event"
    },
    {
      "anonymous": false,
      "inputs": [
        {
          "indexed": true,
          "internalType": "string",
          "name": "evidenceId",
          "type": "string"
        },
        {
          "indexed": false,
          "internalType": "string",
          "name": "caseId",
          "type": "string"
        },
        {
          "indexed": false,
          "internalType": "string",
          "name": "hash",
          "type": "string"
        },
        {
          "indexed": false,
          "internalType": "string",
          "name": "ownerRole",
          "type": "string"
        },
        {
          "indexed": false,
          "internalType": "uint256",
          "name": "timestamp",
          "type": "uint256"
        }
      ],
      "name": "EvidenceAdded",
      "type": "event"
    },
    {
      "inputs": [
        {
          "internalType": "string",
          "name": "evidenceId",
          "type": "string"
        },
        {
          "internalType": "string",
          "name": "caseId",
          "type": "string"
        },
        {
          "internalType": "string",
          "name": "hash",
          "type": "string"
        },
        {
          "internalType": "string",
          "name": "ownerRole",
          "type": "string"
        }
      ],
      "name": "addEvidence",
      "outputs": [],
      "stateMutability": "nonpayable",
      "type": "function"
    },
    {
      "inputs": [
        {
          "internalType": "string",
          "name": "evidenceId",
          "type": "string"
        }
      ],
      "name": "getCustodyTrail",
      "outputs": [
        {
          "internalType": "string[]",
          "name": "",
          "type": "string[]"
        }
      ],
      "stateMutability": "view",
      "type": "function"
    },
    {
      "inputs": [
        {
          "internalType": "string",
          "name": "evidenceId",
          "type": "string"
        }
      ],
      "name": "getEvidence",
      "outputs": [
        {
          "internalType": "string",
          "name": "",
          "type": "string"
        },
        {
          "internalType": "string",
          "name": "",
          "type": "string"
        },
        {
          "internalType": "string",
          "name": "",
          "type": "string"
        },
        {
          "internalType": "string",
          "name": "",
          "type": "string"
        },
        {
          "internalType": "uint256",
          "name": "",
          "type": "uint256"
        }
      ],
      "stateMutability": "view",
      "type": "function"
    },
    {
      "inputs": [
        {
          "internalType": "string",
          "name": "evidenceId",
          "type": "string"
        },
        {
          "internalType": "string",
          "name": "toRole",
          "type": "string"
        }
      ],
      "name": "transferCustody",
      "outputs": [],
      "stateMutability": "nonpayable",
      "type": "function"
    }
  ],
  "bytecode": "0x608060405234801561001057600080fd5b506114fa806100206000396000f3fe608060405234801561001057600080fd5b506004361061004c5760003560e01c80631230b191146100515780633a69a4421461006d578063b16c6ee714610089578063c853bf32146100bd575b600080fd5b61006b60048036038101906100669190610adb565b6100ed565b005b61008760048036038101906100829190610bc4565b610404565b005b6100a3600480360381019061009e9190610c45565b61060e565b6040516100b4959493929190610d3b565b60405180910390f35b6100d760048036038101906100d29190610c45565b610902565b6040516100e49190610eb6565b60405180910390f35b600088886040516100ff929190610f17565b908152602001604051809103902060050160009054906101000a900460ff161561015e576040517f08c379a000000000000000000000000000000000000000000000000000000000815260040161015590610f7c565b60405180910390fd5b6040518060c0016040528089898080601f016020809104026020016040519081016040528093929190818152602001838380828437600081840152601f19601f82011690508083019250505050505050815260200187878080601f016020809104026020016040519081016040528093929190818152602001838380828437600081840152601f19601f82011690508083019250505050505050815260200185858080601f016020809104026020016040519081016040528093929190818152602001838380828437600081840152601f19601f82011690508083019250505050505050815260200183838080601f016020809104026020016040519081016040528093929190818152602001838380828437600081840152601f19601f82011690508083019250505050505050815260200142815260200160011515815250600089896040516102b0929190610f17565b908152602001604051809103902060008201518160000190816102d391906111d7565b5060208201518160010190816102e991906111d7565b5060408201518160020190816102ff91906111d7565b50606082015181600301908161031591906111d7565b506080820151816004015560a08201518160050160006101000a81548160ff02191690831515021790555090505060018888604051610355929190610f17565b908152602001604051809103902082829091806001815401808255809150506001900390600052602060002001600090919290919290919290919250918261039e9291906112b4565b5087876040516103af929190610f17565b60405180910390207fc4bde4d31f9d804c765f971172fb75c3a7c5657338d4f25a03844f0eef13bee0878787878787426040516103f297969594939291906113b1565b60405180910390a25050505050505050565b60008484604051610416929190610f17565b908152602001604051809103902060050160009054906101000a900460ff16610474576040517f08c379a000000000000000000000000000000000000000000000000000000000815260040161046b9061145d565b60405180910390fd5b6000808585604051610487929190610f17565b908152602001604051809103902060030180546104a390610ffa565b80601f01602080910402602001604051908101604052809291908181526020018280546104cf90610ffa565b801561051c5780601f106104f15761010080835404028352916020019161051c565b820191906000526020600020905b8154815290600101906020018083116104ff57829003601f168201915b50505050509050828260008787604051610537929190610f17565b908152602001604051809103902060030191826105559291906112b4565b5060018585604051610568929190610f17565b90815260200160405180910390208383909180600181540180825580915050600190039060005260206000200160009091929091929091929091925091826105b19291906112b4565b5084846040516105c2929190610f17565b60405180910390207fdfab4b79dc5e5088c3e3173aed10a43c0824db7e007c422b5e5a6f5a72764418828585426040516105ff949392919061147d565b60405180910390a25050505050565b6060806060806000808787604051610627929190610f17565b908152602001604051809103902060050160009054906101000a900460ff16610685576040517f08c379a000000000000000000000000000000000000000000000000000000000815260040161067c9061145d565b60405180910390fd5b6000808888604051610698929190610f17565b908152602001604051809103902090508060000181600101826002018360030184600401548480546106c990610ffa565b80601f01602080910402602001604051908101604052809291908181526020018280546106f590610ffa565b80156107425780601f1061071757610100808354040283529160200191610742565b820191906000526020600020905b81548152906001019060200180831161072557829003601f168201915b5050505050945083805461075590610ffa565b80601f016020809104026020016040519081016040528092919081815260200182805461078190610ffa565b80156107ce5780601f106107a3576101008083540402835291602001916107ce565b820191906000526020600020905b8154815290600101906020018083116107b157829003601f168201915b505050505093508280546107e190610ffa565b80601f016020809104026020016040519081016040528092919081815260200182805461080d90610ffa565b801561085a5780601f1061082f5761010080835404028352916020019161085a565b820191906000526020600020905b81548152906001019060200180831161083d57829003601f168201915b5050505050925081805461086d90610ffa565b80601f016020809104026020016040519081016040528092919081815260200182805461089990610ffa565b80156108e65780601f106108bb576101008083540402835291602001916108e6565b820191906000526020600020905b8154815290600101906020018083116108c957829003601f168201915b5050505050915095509550955095509550509295509295909350565b606060008383604051610916929190610f17565b908152602001604051809103902060050160009054906101000a900460ff16610974576040517f08c379a000000000000000000000000000000000000000000000000000000000815260040161096b9061145d565b60405180910390fd5b60018383604051610986929190610f17565b9081526020016040518091039020805480602002602001604051908101604052809291908181526020016000905b82821015610a605783829060005260206000200180546109d390610ffa565b80601f01602080910402602001604051908101604052809291908181526020018280546109ff90610ffa565b8015610a4c5780601f10610a2157610100808354040283529160200191610a4c565b820191906000526020600020905b815481529060010190602001808311610a2f57829003601f168201915b5050505050815260200190600101906109b4565b50505050905092915050565b600080fd5b600080fd5b600080fd5b600080fd5b600080fd5b60008083601f840112610a9b57610a9a610a76565b5b8235905067ffffffffffffffff811115610ab857610ab7610a7b565b5b602083019150836001820283011115610ad457610ad3610a80565b5b9250929050565b6000806000806000806000806080898b031215610afb57610afa610a6c565b5b600089013567ffffffffffffffff811115610b1957610b18610a71565b5b610b258b828c01610a85565b9850985050602089013567ffffffffffffffff811115610b4857610b47610a71565b5b610b548b828c01610a85565b9650965050604089013567ffffffffffffffff811115610b7757610b76610a71565b5b610b838b828c01610a85565b9450945050606089013567ffffffffffffffff811115610ba657610ba5610a71565b5b610bb28b828c01610a85565b92509250509295985092959890939650565b60008060008060408587031215610bde57610bdd610a6c565b5b600085013567ffffffffffffffff811115610bfc57610bfb610a71565b5b610c0887828801610a85565b9450945050602085013567ffffffffffffffff811115610c2b57610c2a610a71565b5b610c3787828801610a85565b925092505092959194509250565b60008060208385031215610c5c57610c5b610a6c565b5b600083013567ffffffffffffffff811115610c7a57610c79610a71565b5b610c8685828601610a85565b92509250509250929050565b600081519050919050565b600082825260208201905092915050565b60005b83811015610ccc578082015181840152602081019050610cb1565b60008484015250505050565b6000601f19601f8301169050919050565b6000610cf482610c92565b610cfe8185610c9d565b9350610d0e818560208601610cae565b610d1781610cd8565b840191505092915050565b6000819050919050565b610d3581610d22565b82525050565b600060a0820190508181036000830152610d558188610ce9565b90508181036020830152610d698187610ce9565b90508181036040830152610d7d8186610ce9565b90508181036060830152610d918185610ce9565b9050610da06080830184610d2c565b9695505050505050565b600081519050919050565b600082825260208201905092915050565b6000819050602082019050919050565b600082825260208201905092915050565b6000610df282610c92565b610dfc8185610dd6565b9350610e0c818560208601610cae565b610e1581610cd8565b840191505092915050565b6000610e2c8383610de7565b905092915050565b6000602082019050919050565b6000610e4c82610daa565b610e568185610db5565b935083602082028501610e6885610dc6565b8060005b85811015610ea45784840389528151610e858582610e20565b9450610e9083610e34565b925060208a01995050600181019050610e6c565b50829750879550505050505092915050565b60006020820190508181036000830152610ed08184610e41565b905092915050565b600081905092915050565b82818337600083830152505050565b6000610efe8385610ed8565b9350610f0b838584610ee3565b82840190509392505050565b6000610f24828486610ef2565b91508190509392505050565b7f45766964656e636520616c726561647920657869737473000000000000000000600082015250565b6000610f66601783610c9d565b9150610f7182610f30565b602082019050919050565b60006020820190508181036000830152610f9581610f59565b9050919050565b7f4e487b7100000000000000000000000000000000000000000000000000000000600052604160045260246000fd5b7f4e487b7100000000000000000000000000000000000000000000000000000000600052602260045260246000fd5b6000600282049050600182168061101257607f821691505b60208210810361102557611024610fcb565b5b50919050565b60008190508160005260206000209050919050565b60006020601f8301049050919050565b600082821b905092915050565b60006008830261108d7fffffffffffffffffffffffffffffffffffffffffffffffffffffffffffffffff82611050565b6110978683611050565b95508019841693508086168417925050509392505050565b6000819050919050565b60006110d46110cf6110ca84610d22565b6110af565b610d22565b9050919050565b6000819050919050565b6110ee836110b9565b6111026110fa826110db565b84845461105d565b825550505050565b600090565b61111761110a565b6111228184846110e5565b505050565b5b818110156111465761113b60008261110f565b600181019050611128565b5050565b601f82111561118b5761115c8161102b565b61116584611040565b81016020851015611174578190505b61118861118085611040565b830182611127565b50505b505050565b600082821c905092915050565b60006111ae60001984600802611190565b1980831691505092915050565b60006111c7838361119d565b9150826002028217905092915050565b6111e082610c92565b67ffffffffffffffff8111156111f9576111f8610f9c565b5b6112038254610ffa565b61120e82828561114a565b600060209050601f831160018114611241576000841561122f578287015190505b61123985826111bb565b8655506112a1565b601f19841661124f8661102b565b60005b8281101561127757848901518255600182019150602085019450602081019050611252565b868310156112945784890151611290601f89168261119d565b8355505b6001600288020188555050505b505050505050565b600082905092915050565b6112be83836112a9565b67ffffffffffffffff8111156112d7576112d6610f9c565b5b6112e18254610ffa565b6112ec82828561114a565b6000601f83116001811461131b5760008415611309578287013590505b61131385826111bb565b86555061137b565b601f1984166113298661102b565b60005b828110156113515784890135825560018201915060208501945060208101905061132c565b8683101561136e578489013561136a601f89168261119d565b8355505b6001600288020188555050505b50505050505050565b60006113908385610c9d565b935061139d838584610ee3565b6113a683610cd8565b840190509392505050565b600060808201905081810360008301526113cc81898b611384565b905081810360208301526113e1818789611384565b905081810360408301526113f6818587611384565b90506114056060830184610d2c565b98975050505050505050565b7f45766964656e636520646f6573206e6f74206578697374000000000000000000600082015250565b6000611447601783610c9d565b915061145282611411565b602082019050919050565b600060208201905081810360008301526114768161143a565b9050919050565b600060608201905081810360008301526114978187610ce9565b905081810360208301526114ac818587611384565b90506114bb6040830184610d2c565b9594505050505056fea2646970667358221220ff0fcfc6c60a4d125461811764901e31d04966c6a6c13d146601628315ecb4e664736f6c63430008110033",
  "linkReferences": {},
  "deployedLinkReferences": {}
}